:020000040800F2
:100000003807002055020008FD1500086514000897
:10001000F91500080104000821180008000000007C
:1000200000000000000000000000000005160008AD
:100030000504000800000000011600080916000869
:100040006F0200086F0200086F0200086F020008CC
:100050006F0200086F0200086F0200086F020008BC
:100060006F0200086F0200086F0200086F020008AC
:100070006F0200086F0200086F0200086F0200089C
:100080006F0200086F0200086F0200086F0200088C
:100090006F0200086F0200086F02000809040008E0
:1000A0006F0200086F0200086F0200086F0200086C
:1000B000C5160008D11600086F0200086F0200087C
:1000C0006F0200086F0200086F0200086F0200084C
:1000D0006F0200086F0200086F0200086F0200083C
:1000E0006F0200086F0200086F0200086F0200082C
:1000F0006F0200086F0200086F0200086F0200081C
:100100006F0200086F0200086F0200086F0200080B
:100110006F0200086F0200086F0200086F020008FB
:100120006F0200086F0200086F0200086F020008EB
:100130006F02000800000000000000006F020008CD
:100140006F0200086F0200086F0200086F020008CB
:100150006F0200086F0200086F0200086F020008BB
:100160006F0200086F0200086F0200086F020008AB
:100170006F0200086F02000800000000000000008D
:100180006F0200086F02000800F002F800F052F859
:1001900014A696E8000CB244B344DA4501D100F04D
:1001A00049F8BAE80F000FA696E83000A5EB040561
:1001B00004EB0607AAEB0704A7F101074FEA1515A0
:1001C0004FEA3414A4F10104AC4201D300F032F838
:1001D00013F0010F18BFFB1A43F0010300F001F800
:1001E000DBE71847F016000010170000103A24BF94
:1001F00078C878C1FAD8520724BF30C830C144BF8C
:1002000004680C6070470000704700000023002461
:1002100000250026103A28BF78C1FBD8520728BF16
:1002200030C148BF0B6070471FB501F03EFB1FBDDA
:1002300010B510BD00F0A9F81146FFF7F5FF01F069
:10024000F1FA00F0C7F803B4FFF7F2FF03BC00F0C7
:10025000CFF800000948804709480047FEE7FEE75D
:10026000FEE7FEE7FEE7FEE7FEE7FEE7FEE7FEE766
:1002700004480549054A064B70470000B1160008BE
:1002800089010008380100203807002038030020C9
:100290003803002053EA020C00F069802DE9F04B8E
:1002A0004FF00006002B1FBFB3FA83F503FA05F4E5
:1002B00024FA05F65E4012BF1643B2FA82F502FA3E
:1002C00005F4C5F120051EBF22FA05FC44EA0C0422
:1002D000203556EA044C4FEA144418BF641C4FF012
:1002E00000084FF00009904271EB030C39D300294C
:1002F00019BFB1FA81F701FA07F6B0FA80F700FAF0
:1003000007F6C7F120071EBF20FA07FC46EA0C06D5
:100310002037B6FBF4FCA7EB0507103F07F01F0BD7
:10032000CBF120062CFA06F60CFA0BFB44BFB346C1
:100330000026202FA4BF5E464FF0000B5BEA060CA0
:1003400008BF4FF0010B19EB0B0948EB0608ABFB9C
:10035000027C06FB02CC0BFB03CCC01B71EB0C0137
:10036000C1E70B46024641464846BDE8F08B13B54F
:10037000084318BF4FF0FF300146AFF30080BDE8DF
:100380001C407047704770477047754600F02CF866
:10039000AE4605006946534620F00700854618B072
:1003A00020B5FFF765FFBDE820404FF000064FF095
:1003B00000074FF000084FF0000BAC46ACE8C00956
:1003C000ACE8C009ACE8C009ACE8C00921F00701FD
:1003D0008D46704710B50446AFF300802046BDE857
:1003E0001040FFF730BF00000048704710000020A9
:1003F00001491820ABBEFEE726000200704700004E
:10040000FEE7000070470000402000F0EDB800005B
:1004100072B600BFFEE7000000284FF0010318BFCE
:10042000002901D1184670474379012B4FF0020390
:10043000F8D010B50371036802F0100ED3F800C0B5
:10044000D1E9001440F6FE7202FA0EF221432CEAC2
:10045000020201FA0EF111431960C0211A6801FA73
:100460000EF122EA0101196001210023017143719B
:10047000BDE8104018467047002804BF01207047AF
:1004800010B50446007920B900206071204600F0C4
:1004900007F802202071002001212061217110BD88
:1004A00080B586B047F200410068C4F20001002226
:1004B00088420592049201D006B080BD43F6300018
:1004C0000092C4F20200036943F000530361036920
:1004D00003F000530093009B0092036843F0010374
:1004E0000360006800F00100009000982020019057
:1004F0000320CDE9020201F5C63001A900F080F821
:1005000006B080BD81B04FF0000CCDF800C068B1DE
:100510000068002900900098104414BF143008307F
:10052000009000980360002001B07047012001B0E6
:1005300070470000002804BF012070474279012A5B
:100540004FF0020226D010B50271026801F0100EC1
:100550004FF0010C14680CFA0EF323431360D2F829
:1005600000C049B13C230CF4701103FA0EF3994218
:100570000AD1022105E000BF0CF03C013C2903D167
:100580000121536819435160012100220171427118
:10059000BDE8104010467047402818BF704780B52E
:1005A0000020C4F20200402100F0FAF80128BDE862
:1005B000804040F27000C2F2000007D101690131B1
:1005C00001610021417001210170704741690022E1
:1005D0000131416100210170C36840F28C00C2F218
:1005E00000001021FFF78EBF43F61441C4F2010151
:1005F0000A68024214BF08607047FFF7CDBF0000D1
:100600002DE9F04F82B000F13E4707F1FF778605F4
:1006100046EA972741F60046C4F20206082243F64E
:10062000004EB04208BF0722C4F2010E072F38BFA8
:100630003A46002600274FF00008009209E000BF6C
:1006400008F101080237B8F1100F06F1040600F0B6
:10065000A3800D68012202FA08F415EA0409EFD01C
:10066000D1F804B003220BF0030CACF10105BA4041
:10067000012D6FEA020A0FD88268CD6802EA0A02E9
:10068000BD402A4382604268A243CBF3001404FABF
:1006900008F42243426005E0BCF1030F02D14FF0A1
:1006A000030C1EE0C2688C6802EA0A02BC402243C6
:1006B000BCF1020FC26014D16FF0030202EA5802CB
:1006C0000244D2F820C006F01C040F230D69A34099
:1006D0002CEA0303A5402B431362D1F804B00BF0BE
:1006E000030C02680CFA07F302EA0A021A431BF42D
:1006F000403F0260A4D0002243F644030192C4F2BA
:1007000002031A684FF6084C42F480421A601A68D5
:10071000CFF6FF7C02F480420192019A28F0030296
:10072000724452F80C3006F00C050F24AC40A34381
:10073000009C04FA05F52B4342F80C30DEF8082043
:100740004B6842EA090543F60C4CDC0258BF22EA2A
:100750000905CEF80850C4F2010CDCF800209C0218
:1007600042EA090558BF22EA0905CCF80050DEF834
:1007700004209C0342EA090558BF22EA0905CEF885
:100780000450DEF80020DB0342EA090558BF22EAE4
:100790000905CEF8005053E702B0BDE8F08F000025
:1007A0000069084018BF01207047000040F2301077
:1007B000C2F200000068704740F2000040F23011C1
:1007C000C2F20000C2F2000100780A68104408601A
:1007D0007047000080B543F60040C4F20200016893
:1007E00041F400710160016841F4806101600168B9
:1007F00041F480710160032000F086F80F2000F0C2
:1008000005F800F027F8002080BD000070B540F228
:100810000006C2F2000640F208013278C2F200017E
:100820004FF47A730968B3FBF2F20446B1FBF2F1BC
:10083000084600F039FB0F2C4FF0010508D838B9F5
:100840004FF0FF3021460022002500F031F874609F
:10085000284670BD82B0002043F640010190C4F2EA
:1008600002014A6842F480424A604A6802F48042C7
:100870000192019A0090086840F080500860086872
:1008800000F080500090009802B07047002848BFE8
:10089000704700F01F01012202FA01F11C2202EA56
:1008A000D0004EF20012CEF20002815070470000DC
:1008B00010B54EF60C5CCEF2000CDCF80030C3F341
:1008C000022E8EF00704042C28BF0424BEF103037B
:1008D0004FF0FF3E0EFA04F438BF0023A1439940C5
:1008E0000EFA03F39A43114300F00F0200F1604344
:1008F0000901043A03F564436244002848BF02F149
:100900000C03197010BD00004EF60C51CEF2000120
:100910000A684FF6FF031A4060F30A2242F0806033
:1009200040F0FD7008607047002804BF0120704748
:100930002DE9F04143F60808C4F202080446D8F84D
:10094000F8030D4600F00700884207D288F8F853F4
:10095000D8F8F80300F00700A84277D12068810793
:1009600017D5410705D5D8F8001041F4E051C8F873
:100970000010010705D5D8F8001041F46041C8F80F
:100980000010D8F80010A26821F0F0011143C8F857
:100990000010C00740D1D8F8F80300F00700A842C3
:1009A00007D988F8F853D8F8F80300F00700A842F0
:1009B0004CD12068410707D5D8F80010E26821F42F
:1009C000E0511143C8F80010000708D5D8F800001E
:1009D000216920F4604040EAC100C8F8000000F03E
:1009E00055F8D8F8001041F6C402C1F30311C0F65F
:1009F0000002515C40F2080220FA01F140F20400CA
:100A0000C2F200000068C2F200021160FFF7FEFEB1
:100A10000020BDE8F08100BF6068811E022907D276
:100A200058F8081C89015CBF0120BDE8F08111E085
:100A3000012807D158F8081C89035CBF0120BDE8D4
:100A4000F08107E058F8081C890703D40120BDE8AD
:100A5000F08100BFD8F8001021F003010843C8F866
:100A60000000FFF7A3FE064641F28837D8F80000E1
:100A7000616800F00C00B0EB810F8CD0FFF796FEA0
:100A8000801BB842F2D90320BDE8F08110B543F6CF
:100A90000404C4F20204606800F00C0142F2004059
:100AA0000829C0F2F40007D0042918BF10BD41F294
:100AB0000020C0F27A0010BD216801F03F022168D9
:100AC00023684902C3F3881106D4A1FB0001002367
:100AD000FFF7E0FB07E000BF41F20020C0F27A0020
:100AE0004843B0FBF2F021680222C1F3014102EB5E
:100AF0004101B0FBF1F010BD002804BF0120704798
:100B00002DE9F04182B00446007843F60006C007A4
:100B1000C4F202060CD0B06800F00C00042840F0CB
:100B200081803068800303D56068002800F06A8106
:100B3000207880071BD5B06810F00C0F09D0B06882
:100B400000F00C00082840F087807068400200F137
:100B500083803068800703D5E068012840F0528127
:100B60003068216920F0F80040EAC1003060207848
:100B7000000713D4207840072AD4A569002D00F07F
:100B80003C81B06800F00C00082840F0A180012DE5
:100B900040F01081012002B0BDE8F08160690028BA
:100BA00040F20000C4F2472000F07E800121C0F82E
:100BB000801EFFF7FBFD0546706F8007DAD4FFF754
:100BC000F5FD401B0228F7D9032002B0BDE8F081F3
:100BD000306C5FEAC0080AD400200190306C40F00D
:100BE00080503064306C00F080500190019847F2E2
:100BF0000007C4F200073868C00547D4386840F4DD
:100C000080703860FFF7D2FD054600BF3868C00528
:100C10003CD4FFF7CBFD401B0228F7D9032002B0DC
:100C2000BDE8F081B06800F00C00082803D17068BE
:100C300040023FF576AF6068B0F5803F07D0B0F571
:100C4000A02F40F09B80306840F4802030603068F6
:100C500040F4803030609BE0E06800285CD00020E9
:100C6000C4F2472001210160FFF7A0FD054600BF47
:100C7000306880073FF574AFFFF798FD401B0228EE
:100C8000F6D9032002B0BDE8F08100BFA0680128BA
:100C900005D0052854D1306F40F004003067306F24
:100CA00040F00100306755E00021C0F8801EFFF7DA
:100CB0007DFD0546706F80077FF55CAFFFF776FD21
:100CC000401B0228F6D9032002B0BDE8F08100BF26
:100CD0000027C4F2472700203866FFF767FD022D82
:100CE00005460DD13068800140F19080FFF75EFD30
:100CF000401B02284FF00300F4D902B0BDE8F08198
:100D00003068800179D5FFF751FD401B02284FF074
:100D10000300F5D9F1E700BF0020C4F2472000210D
:100D20000160FFF743FD0546306880077FF51FAF80
:100D3000FFF73CFD401B02284FF00300F4D9DCE72D
:100D4000316F002821F001013167316F21F004017A
:100D500031677DD0FFF72AFD054641F2883700BF95
:100D6000306F800700F18680FFF720FD401BB842FE
:100D7000F6D9032002B0BDE8F08100BF3168002839
:100D800021F480313160316821F4802131607BD0E1
:100D9000FFF70CFD054600BF306880033FF5C8AE85
:100DA000FFF704FD401B6428F6D9032002B0BDE81C
:100DB000F08100BF7068E16900F480028A4221D1AD
:100DC000216A00F03F028A421CD147F6C071626A74
:100DD0000140B1EB821F15D1A16A4FF6FF73C90321
:100DE000994300F44032A1F580318A420AD1E16A88
:100DF00000F07060B0EB016F04D1002002B0BDE8DC
:100E0000F08100BF012002B0BDE8F08104F11C05B3
:100E10002FCD084340EA8210D9034FF6FF72914369
:100E2000A1F5803140EA0560084370600120386612
:100E3000FFF7BCFC044600BF30688001DDD4FFF73B
:100E4000B5FC001B02284FF00300F5D955E700BFA1
:100E5000FFF7ACFC054641F2883700BF306F8007D2
:100E600008D5FFF7A3FC401BB8424FF00300F5D9AB
:100E700043E700BFB8F1000F3FF57FAE306C20F0C4
:100E80008050306479E600BFFFF790FC054600BF54
:100E9000306880037FF54CAEFFF788FC401B642868
:100EA0004FF00300F4D928E7411E0020B0EB116F8A
:100EB0001CBF012070474EF21002CEF200025160BA
:100EC0004EF62351CEF20001F0230B700721906003
:100ED00011607047704700007047000090F83C2098
:100EE000012A4FF0020254D010B580F83D2002686C
:100EF000D2F804E0D2F808C00C682EF07003234347
:100F000041F2FF74C4F20004A24253600EDC40F2CE
:100F1000FF73C4F200039A4216DCB2F1804F2BD06B
:100F200040F20043C4F2000324E000BF40F2FF336C
:100F3000C4F201039A4213DC41F60003C4F2000339
:100F40009A4219D0002313E040F60003C4F20003D4
:100F50009A4211D040F60043C4F200030AE000BFF9
:100F600044F20003C4F201039A4205D040F2004368
:100F7000C4F201039A4204D149682CF0800319435A
:100F800091600121002280F83D1080F83C20BDE8EE
:100F90001040104670470000002804BF0120704731
:100FA00010B5044690F83D0028B9002084F83C00B4
:100FB000204600F01FF8022084F83D002068211D23
:100FC00000F08CFB012084F8460084F83E0084F891
:100FD0003F0084F8400084F8410084F8420084F81F
:100FE000430084F8440084F8450084F83D00002064
:100FF00010BD000010B582B0006840F20041C4F29C
:101000000001884214D0B0F1804F2DD10020019012
:1010100043F64000C4F2020001681C2441F00101C3
:101020000160006800F001000190019810E000BF2D
:101030000020009043F64000C4F2020001681D2425
:1010400041F002010160006800F002000090009889
:10105000204600210022FFF72BFC204602B0BDE80D
:101060001040FFF713BC00BF02B010BD90F83D1058
:1010700001291CBF01207047022180F83D10006843
:1010800041F2FF72C168C4F20002904241F00101D6
:10109000C1600DDC40F2FF71C4F20001884215DC32
:1010A000B0F1804F2AD040F20041C4F2000123E0A9
:1010B00040F2FF31C4F20101884213DC41F6000125
:1010C000C4F20001884219D0002113E040F600016B
:1010D000C4F20001884211D040F60041C4F2000180
:1010E0000AE000BF44F20001C4F20101884205D0C9
:1010F00040F20041C4F20101884206D1816801F04A
:101100000701062904BF00207047016841F0010172
:10111000016000207047000090F83C20012A4FF049
:10112000020200F0C58080B580F83D20D0F800C0F4
:101130004FF67772DCF8083023EA0202CCF8082078
:101140000B684F2B28DC1F2B44DD202B45D0302B88
:1011500043D0402B40F0AE80D1F804E0C968DCF801
:101160002030DCF8202022F00102CCF82020DCF82E
:10117000182022F0F00242EA011123F00A0242EAAA
:101180000E02CCF81810CCF82020DCF8081041F042
:10119000470121F0300180E06F2B27DDB3F5005FC0
:1011A00048D0B3F5805F7AD0702B40F08380D1E9CE
:1011B00001E3C968DCF8082043EA0E0322F47F4209
:1011C00043EA01211143CCF80810DCF8081041F083
:1011D000770162E00BB1102B6CD1DCF8081021F024
:1011E0007001194341F0070157E000BF502B35D083
:1011F000602B5FD1D1F804E0C968DCF82030DCF85E
:10120000202022F01002CCF82020DCF8182022F454
:10121000704242EA013123F0A00242EA0E12CCF8F9
:101220001810CCF82020DCF8081041F0670121F0FC
:10123000100132E0D1E901E3C968DCF8082043EA93
:101240000E0322F47F4243EA01211143CCF8081037
:10125000DCF8081041F480411FE000BFD1F804E041
:10126000C968DCF82030DCF8202022F00102CCF83C
:101270002020DCF8182022F0F00242EA011123F0CD
:101280000A0242EA0E02CCF81810CCF82020DCF852
:10129000081041F0570121F02001CCF8081000227D
:1012A000012180F83D10002180F83C10BDE880400D
:1012B000104670470122F3E77047000070B50446FE
:1012C0000068C5680669B10716D515F0020113D08C
:1012D0006FF002010161012121778069800703D04D
:1012E0002046FFF7E9FF05E0204600F08FF8204692
:1012F00000F08EF800202077700719D515F0040053
:1013000016D020686FF00401016102212177806905
:1013100010F4407F04D02046FFF7CEFF06E000BF68
:10132000204600F073F8204600F072F80020207785
:10133000300717D515F0080014D020686FF00801A9
:10134000016104212177C069800703D02046FFF79F
:10135000B3FF05E0204600F059F8204600F058F8A9
:1013600000202077F00619D515F0100016D020685F
:101370006FF01001016108212177C06910F4407FEE
:1013800004D02046FFF798FF06E000BF204600F09B
:101390003DF8204600F03CF800202077F00718BF09
:1013A00015F0010002D1300609D412E020686FF078
:1013B00001010161204600F02DF8300609D515F035
:1013C000800006D020686FF0800101612046FFF7A1
:1013D00081FD700609D515F0400006D020686FF039
:1013E00040010161204600F03BF8B00658BF70BDD7
:1013F00015F0200008D021686FF0200220460A6115
:10140000BDE87040FFF768BD70BD00007047000088
:1014100070470000006840F20041C4F200018842B9
:1014200018BF704740F27000C2F2000081690131BC
:101430008161017891B14178042281F0010141700C
:101440004178002908BF0822835840F28C00C2F27C
:10145000000010210022FFF755B800BF70470000C0
:1014600070470000FEE7000080B582B00020CDE9A3
:10147000000040F28C0047F20041C2F20000C4F2CA
:1014800000010160FEF7F8FF002818BFFEF7C0FF5B
:1014900040F28C00C2F2000069461022FEF7BCFF49
:1014A000002818BFFEF7B4FF02B080BD80B586B03B
:1014B000002043F63001CDE904000090C4F202019F
:1014C0000A6842F080020A600A6802F08002009214
:1014D000009A00900A6842F001020A60096801F06F
:1014E000010100910099402101914FF44411CDE98F
:1014F00002100020C4F2020001A9FFF781F81720B2
:1015000000210022FFF7D4F91720FFF7BFF906B03A
:1015100080BD000080B586B040F2A0000021C2F27C
:1015200000004FF0804241F267030591CDE90311BD
:10153000CDE90011C0E90021C0E902130161816118
:10154000FFF72AFD002818BFFEF762FF4FF4805016
:10155000029040F2A000C2F2000002A9FFF7DCFDF9
:10156000002818BFFEF754FF40F2A000C2F20000AE
:101570006946FFF7B3FC002818BFFEF749FF06B025
:1015800080BD000080B586B040F2E80040F2004225
:101590000021C2F20000C4F2000240F633030591BC
:1015A000CDE90311CDE90011C0E90021C0E9021322
:1015B00001618161FFF7F0FC002818BFFEF728FFEA
:1015C0004FF48050029040F2E800C2F2000002A9FD
:1015D000FFF7A2FD002818BFFEF71AFF40F2E8004F
:1015E000C2F200006946FFF779FC002818BFFEF739
:1015F0000FFF06B080BD0000FEE70000FEE7000020
:101600007047000070470000FFF7D6B8B0B592B041
:10161000002443F64000CDE90A44CDE9084405948E
:10162000CDE90344CDE901440094C4F2020001680D
:10163000022541F080510160006800F08050009068
:10164000009847F200000094C4F20000016841F4E1
:10165000804101600068542100F4804000900098AF
:10166000012006904FF4A02007904FF480000D90C9
:1016700004200E90119006A80C95CDE90F15FFF7E8
:101680003BFA18B172B600BFFEE700BF0F20CDE9EC
:1016900001054FF48050CDE9040401A80221039410
:1016A000FFF742F910B172B6FEE700BF12B0B0BD4D
:1016B0004EF68850CEF20000016841F470010160DE
:1016C0007047000040F2A000C2F20000FFF7F6BD34
:1016D00040F2E800C2F20000FFF7F0BDB0B540F6FE
:1016E000FF3E0568C4F2000E40F2004C7045C4F2A3
:1016F000010C27DCB0F1804F31D040F20043C4F23E
:10170000000398422BD040F60003C4F20003984235
:1017100025D041F6FF73C4F2000398422ADC7045DD
:101720003CDCB0F1804F5FD040F20043C4F20003D4
:10173000984259D040F60003C4F20003984253D0B7
:1017400057E000BF40F60043C4F20003984206D0C1
:10175000604504D00023C4F201039842D9D14B68FC
:1017600025F0700243EA020541F6FF73C4F200035C
:101770009842D4DD43F6FF73C4F20103984221DCA2
:1017800042F20003C4F2000398422DD00023C4F2B9
:101790000103984228D0604526D02AE040F6004355
:1017A000C4F2000398421FD041F60003C4F20003C4
:1017B000984219D041F60043C4F20003984213D076
:1017C00017E000BF44F20003C4F2010398420BD0BB
:1017D00044F60003C4F20103984205D044F20043EA
:1017E000C4F20103984204D1CB6825F4407243EA65
:1017F00002050A688C684B69C46240F480648262A6
:10180000644504BF09690163026825F0800142F064
:10181000040219430260012242610160B0BD000070
:10182000FEE70000FEF7D6FFFFF7F0FEFFF73EFEF3
:10183000FFF770FEFFF718FEFFF7A4FE40F27005F9
:10184000C2F2000540F23B30686040F6ED40A8600F
:1018500040F61400E860686840F28C04B0F5805FE0
:1018600024BF40F6FF706860A868C2F20004B0F5BB
:10187000805F24BF40F6FF70A860E8681021B0F5D3
:10188000805F24BF40F6FF70E8602046FEF752FEFE
:10189000EB68204610210022FEF734FE40F2E800FB
:1018A000C2F20000FFF7E2FBFEE7F1EE100A4FF68E
:1018B000FF71C0F2C03120EA010040F04070E1EE5B
:1018C000100A70470000000000000000010203043D
:1018D00006070809F81800080000002010000000A2
:1018E000EC0100080819000810000020280700007B
:1018F0000C020008000000000100000010000000C1
:081900000024F40000000000C7
:040000050800018965
:00000001FF
